{
  "contractName": "LandContract",
  "abi": [
    {
      "constant": true,
      "inputs": [],
      "name": "name",
      "outputs": [
        {
          "name": "",
          "type": "string"
        }
      ],
      "payable": false,
      "stateMutability": "view",
      "type": "function",
      "signature": "0x06fdde03"
    },
    {
      "constant": true,
      "inputs": [],
      "name": "owner",
      "outputs": [
        {
          "name": "",
          "type": "address"
        }
      ],
      "payable": false,
      "stateMutability": "view",
      "type": "function",
      "signature": "0x8da5cb5b"
    },
    {
      "constant": true,
      "inputs": [],
      "name": "landCount",
      "outputs": [
        {
          "name": "",
          "type": "uint256"
        }
      ],
      "payable": false,
      "stateMutability": "view",
      "type": "function",
      "signature": "0xd7bce658"
    },
    {
      "constant": true,
      "inputs": [
        {
          "name": "",
          "type": "uint256"
        }
      ],
      "name": "lands",
      "outputs": [
        {
          "name": "landID",
          "type": "uint256"
        },
        {
          "name": "location",
          "type": "string"
        },
        {
          "name": "image",
          "type": "string"
        },
        {
          "name": "value",
          "type": "uint256"
        },
        {
          "name": "owner",
          "type": "address"
        },
        {
          "name": "forSale",
          "type": "bool"
        }
      ],
      "payable": false,
      "stateMutability": "view",
      "type": "function",
      "signature": "0xe261f1e5"
    },
    {
      "inputs": [],
      "payable": false,
      "stateMutability": "nonpayable",
      "type": "constructor",
      "signature": "constructor"
    },
    {
      "anonymous": false,
      "inputs": [
        {
          "indexed": false,
          "name": "landID",
          "type": "uint256"
        },
        {
          "indexed": false,
          "name": "location",
          "type": "string"
        },
        {
          "indexed": false,
          "name": "value",
          "type": "uint256"
        },
        {
          "indexed": false,
          "name": "owner",
          "type": "address"
        },
        {
          "indexed": false,
          "name": "forSale",
          "type": "bool"
        }
      ],
      "name": "Add",
      "type": "event",
      "signature": "0xb89ec84ff7a8e45184b005a44c7cc48d0e92b5f6b78a5f9d768757d697685412"
    },
    {
      "anonymous": false,
      "inputs": [
        {
          "indexed": false,
          "name": "landID",
          "type": "uint256"
        },
        {
          "indexed": false,
          "name": "location",
          "type": "string"
        },
        {
          "indexed": false,
          "name": "value",
          "type": "uint256"
        },
        {
          "indexed": false,
          "name": "owner",
          "type": "address"
        },
        {
          "indexed": false,
          "name": "forSale",
          "type": "bool"
        }
      ],
      "name": "Transfer",
      "type": "event",
      "signature": "0xf6058d925aaac6fafc272442a7b5c5d8aac85c921100fd2e254e3ecf89f7ba31"
    },
    {
      "anonymous": false,
      "inputs": [
        {
          "indexed": false,
          "name": "landID",
          "type": "uint256"
        },
        {
          "indexed": false,
          "name": "location",
          "type": "string"
        },
        {
          "indexed": false,
          "name": "value",
          "type": "uint256"
        },
        {
          "indexed": false,
          "name": "owner",
          "type": "address"
        },
        {
          "indexed": false,
          "name": "forSale",
          "type": "bool"
        }
      ],
      "name": "List",
      "type": "event",
      "signature": "0x860792ae13c1e1b4bfed2f0126e03c27cd34ceddf6b678ee73493c134c4a2e33"
    },
    {
      "constant": false,
      "inputs": [
        {
          "name": "_location",
          "type": "string"
        },
        {
          "name": "_image",
          "type": "string"
        },
        {
          "name": "_value",
          "type": "uint256"
        }
      ],
      "name": "addLand",
      "outputs": [],
      "payable": false,
      "stateMutability": "nonpayable",
      "type": "function",
      "signature": "0x0c73f23d"
    },
    {
      "constant": false,
      "inputs": [
        {
          "name": "_id",
          "type": "uint256"
        }
      ],
      "name": "buyLand",
      "outputs": [],
      "payable": true,
      "stateMutability": "payable",
      "type": "function",
      "signature": "0xced39558"
    },
    {
      "constant": false,
      "inputs": [
        {
          "name": "_id",
          "type": "uint256"
        },
        {
          "name": "_value",
          "type": "uint256"
        }
      ],
      "name": "listLand",
      "outputs": [],
      "payable": true,
      "stateMutability": "payable",
      "type": "function",
      "signature": "0xf35fb209"
    }
  ],
  "bytecode": "0x608060405260006002553480156200001657600080fd5b506040805190810160405280600e81526020017f457468657265756d20486f6d65730000000000000000000000000000000000008152506000908051906020019062000064929190620000ac565b5033600160006101000a81548173ffffffffffffffffffffffffffffffffffffffff021916908373ffffffffffffffffffffffffffffffffffffffff1602179055506200015b565b828054600181600116156101000203166002900490600052602060002090601f016020900481019282601f10620000ef57805160ff191683800117855562000120565b8280016001018555821562000120579182015b828111156200011f57825182559160200191906001019062000102565b5b5090506200012f919062000133565b5090565b6200015891905b80821115620001545760008160009055506001016200013a565b5090565b90565b6117c6806200016b6000396000f3fe608060405260043610610083576000357c0100000000000000000000000000000000000000000000000000000000900463ffffffff16806306fdde03146100885780630c73f23d146101185780638da5cb5b14610281578063ced39558146102d8578063d7bce65814610306578063e261f1e514610331578063f35fb2091461049d575b600080fd5b34801561009457600080fd5b5061009d6104d5565b6040518080602001828103825283818151815260200191508051906020019080838360005b838110156100dd5780820151818401526020810190506100c2565b50505050905090810190601f16801561010a5780820380516001836020036101000a031916815260200191505b509250505060405180910390f35b34801561012457600080fd5b5061027f6004803603606081101561013b57600080fd5b810190808035906020019064010000000081111561015857600080fd5b82018360208201111561016a57600080fd5b8035906020019184600183028401116401000000008311171561018c57600080fd5b91908080601f016020809104026020016040519081016040528093929190818152602001838380828437600081840152601f19601f820116905080830192505050505050509192919290803590602001906401000000008111156101ef57600080fd5b82018360208201111561020157600080fd5b8035906020019184600183028401116401000000008311171561022357600080fd5b91908080601f016020809104026020016040519081016040528093929190818152602001838380828437600081840152601f19601f82011690508083019250505050505050919291929080359060200190929190505050610573565b005b34801561028d57600080fd5b506102966108dc565b604051808273ffffffffffffffffffffffffffffffffffffffff1673ffffffffffffffffffffffffffffffffffffffff16815260200191505060405180910390f35b610304600480360360208110156102ee57600080fd5b8101908080359060200190929190505050610902565b005b34801561031257600080fd5b5061031b610f83565b6040518082815260200191505060405180910390f35b34801561033d57600080fd5b5061036a6004803603602081101561035457600080fd5b8101908080359060200190929190505050610f89565b6040518087815260200180602001806020018681526020018573ffffffffffffffffffffffffffffffffffffffff1673ffffffffffffffffffffffffffffffffffffffff16815260200184151515158152602001838103835288818151815260200191508051906020019080838360005b838110156103f65780820151818401526020810190506103db565b50505050905090810190601f1680156104235780820380516001836020036101000a031916815260200191505b50838103825287818151815260200191508051906020019080838360005b8381101561045c578082015181840152602081019050610441565b50505050905090810190601f1680156104895780820380516001836020036101000a031916815260200191505b509850505050505050505060405180910390f35b6104d3600480360360408110156104b357600080fd5b810190808035906020019092919080359060200190929190505050611122565b005b60008054600181600116156101000203166002900480601f01602080910402602001604051908101604052809291908181526020018280546001816001161561010002031660029004801561056b5780601f106105405761010080835404028352916020019161056b565b820191906000526020600020905b81548152906001019060200180831161054e57829003601f168201915b505050505081565b600160009054906101000a900473ffffffffffffffffffffffffffffffffffffffff1673ffffffffffffffffffffffffffffffffffffffff163373ffffffffffffffffffffffffffffffffffffffff161415156105cf57600080fd5b60008351111515610648576040517f08c379a00000000000000000000000000000000000000000000000000000000081526004018080602001828103825260188152602001807f4d75737420626520612076616c6964206c6f636174696f6e000000000000000081525060200191505060405180910390fd5b6000811115156106c0576040517f08c379a000000000000000000000000000000000000000000000000000000000815260040180806020018281038252600f8152602001807f4d75737420626520612076616c7565000000000000000000000000000000000081525060200191505060405180910390fd5b60026000815480929190600101919050555060c06040519081016040528060025481526020018481526020018381526020018281526020013373ffffffffffffffffffffffffffffffffffffffff168152602001600115158152506003600060025481526020019081526020016000206000820151816000015560208201518160010190805190602001906107569291906116a6565b5060408201518160020190805190602001906107739291906116a6565b506060820151816003015560808201518160040160006101000a81548173ffffffffffffffffffffffffffffffffffffffff021916908373ffffffffffffffffffffffffffffffffffffffff16021790555060a08201518160040160146101000a81548160ff0219169083151502179055509050507fb89ec84ff7a8e45184b005a44c7cc48d0e92b5f6b78a5f9d768757d697685412600254848333600160405180868152602001806020018581526020018473ffffffffffffffffffffffffffffffffffffffff1673ffffffffffffffffffffffffffffffffffffffff16815260200183151515158152602001828103825286818151815260200191508051906020019080838360005b8381101561089957808201518184015260208101905061087e565b50505050905090810190601f1680156108c65780820380516001836020036101000a031916815260200191505b50965050505050505060405180910390a1505050565b600160009054906101000a900473ffffffffffffffffffffffffffffffffffffffff1681565b61090a611726565b6003600083815260200190815260200160002060c0604051908101604052908160008201548152602001600182018054600181600116156101000203166002900480601f0160208091040260200160405190810160405280929190818152602001828054600181600116156101000203166002900480156109cc5780601f106109a1576101008083540402835291602001916109cc565b820191906000526020600020905b8154815290600101906020018083116109af57829003601f168201915b50505050508152602001600282018054600181600116156101000203166002900480601f016020809104026020016040519081016040528092919081815260200182805460018160011615610100020316600290048015610a6e5780601f10610a4357610100808354040283529160200191610a6e565b820191906000526020600020905b815481529060010190602001808311610a5157829003601f168201915b50505050508152602001600382015481526020016004820160009054906101000a900473ffffffffffffffffffffffffffffffffffffffff1673ffffffffffffffffffffffffffffffffffffffff1673ffffffffffffffffffffffffffffffffffffffff1681526020016004820160149054906101000a900460ff161515151581525050905060008160800151905060008260000151118015610b175750600254826000015111155b1515610b8b576040517f08c379a00000000000000000000000000000000000000000000000000000000081526004018080602001828103825260138152602001807f6c616e6420646f6573206e6f742065786973740000000000000000000000000081525060200191505060405180910390fd5b81606001513410151515610c07576040517f08c379a00000000000000000000000000000000000000000000000000000000081526004018080602001828103825260108152602001807f4e6f7420656e6f7567682066756e64730000000000000000000000000000000081525060200191505060405180910390fd5b600115158260a001511515141515610c87576040517f08c379a00000000000000000000000000000000000000000000000000000000081526004018080602001828103825260148152602001807f6c616e64206973206e6f7420666f722073616c6500000000000000000000000081525060200191505060405180910390fd5b3373ffffffffffffffffffffffffffffffffffffffff168173ffffffffffffffffffffffffffffffffffffffff1614151515610d2b576040517f08c379a000000000000000000000000000000000000000000000000000000000815260040180806020018281038252601a8152602001807f62757965722063616e6e6f74206265206c616e64206f776e657200000000000081525060200191505060405180910390fd5b33826080019073ffffffffffffffffffffffffffffffffffffffff16908173ffffffffffffffffffffffffffffffffffffffff168152505060008260a00190151590811515815250508160036000858152602001908152602001600020600082015181600001556020820151816001019080519060200190610dae9291906116a6565b506040820151816002019080519060200190610dcb9291906116a6565b506060820151816003015560808201518160040160006101000a81548173ffffffffffffffffffffffffffffffffffffffff021916908373ffffffffffffffffffffffffffffffffffffffff16021790555060a08201518160040160146101000a81548160ff0219169083151502179055509050508073ffffffffffffffffffffffffffffffffffffffff166108fc349081150290604051600060405180830381858888f19350505050158015610e86573d6000803e3d6000fd5b507ff6058d925aaac6fafc272442a7b5c5d8aac85c921100fd2e254e3ecf89f7ba316002548360200151846060015133600060405180868152602001806020018581526020018473ffffffffffffffffffffffffffffffffffffffff1673ffffffffffffffffffffffffffffffffffffffff16815260200183151515158152602001828103825286818151815260200191508051906020019080838360005b83811015610f40578082015181840152602081019050610f25565b50505050905090810190601f168015610f6d5780820380516001836020036101000a031916815260200191505b50965050505050505060405180910390a1505050565b60025481565b6003602052806000526040600020600091509050806000015490806001018054600181600116156101000203166002900480601f01602080910402602001604051908101604052809291908181526020018280546001816001161561010002031660029004801561103b5780601f106110105761010080835404028352916020019161103b565b820191906000526020600020905b81548152906001019060200180831161101e57829003601f168201915b505050505090806002018054600181600116156101000203166002900480601f0160208091040260200160405190810160405280929190818152602001828054600181600116156101000203166002900480156110d95780601f106110ae576101008083540402835291602001916110d9565b820191906000526020600020905b8154815290600101906020018083116110bc57829003601f168201915b5050505050908060030154908060040160009054906101000a900473ffffffffffffffffffffffffffffffffffffffff16908060040160149054906101000a900460ff16905086565b61112a611726565b6003600084815260200190815260200160002060c0604051908101604052908160008201548152602001600182018054600181600116156101000203166002900480601f0160208091040260200160405190810160405280929190818152602001828054600181600116156101000203166002900480156111ec5780601f106111c1576101008083540402835291602001916111ec565b820191906000526020600020905b8154815290600101906020018083116111cf57829003601f168201915b50505050508152602001600282018054600181600116156101000203166002900480601f01602080910402602001604051908101604052809291908181526020018280546001816001161561010002031660029004801561128e5780601f106112635761010080835404028352916020019161128e565b820191906000526020600020905b81548152906001019060200180831161127157829003601f168201915b50505050508152602001600382015481526020016004820160009054906101000a900473ffffffffffffffffffffffffffffffffffffffff1673ffffffffffffffffffffffffffffffffffffffff1673ffffffffffffffffffffffffffffffffffffffff1681526020016004820160149054906101000a900460ff16151515158152505090506000816000015111801561132e5750600254816000015111155b15156113a2576040517f08c379a00000000000000000000000000000000000000000000000000000000081526004018080602001828103825260138152602001807f6c616e6420646f6573206e6f742065786973740000000000000000000000000081525060200191505060405180910390fd5b3373ffffffffffffffffffffffffffffffffffffffff16816080015173ffffffffffffffffffffffffffffffffffffffff16141515611449576040517f08c379a000000000000000000000000000000000000000000000000000000000815260040180806020018281038252601a8152602001807f796f7520617265206e6f7420746865206c616e64206f776e657200000000000081525060200191505060405180910390fd5b600015158160a0015115151415156114c9576040517f08c379a00000000000000000000000000000000000000000000000000000000081526004018080602001828103825260168152602001807f6c616e6420697320616c7265616479206c69737465640000000000000000000081525060200191505060405180910390fd5b60018160a001901515908115158152505081816060018181525050806003600085815260200190815260200160002060008201518160000155602082015181600101908051906020019061151e9291906116a6565b50604082015181600201908051906020019061153b9291906116a6565b506060820151816003015560808201518160040160006101000a81548173ffffffffffffffffffffffffffffffffffffffff021916908373ffffffffffffffffffffffffffffffffffffffff16021790555060a08201518160040160146101000a81548160ff0219169083151502179055509050507f860792ae13c1e1b4bfed2f0126e03c27cd34ceddf6b678ee73493c134c4a2e338382602001518433600160405180868152602001806020018581526020018473ffffffffffffffffffffffffffffffffffffffff1673ffffffffffffffffffffffffffffffffffffffff16815260200183151515158152602001828103825286818151815260200191508051906020019080838360005b83811015611663578082015181840152602081019050611648565b50505050905090810190601f1680156116905780820380516001836020036101000a031916815260200191505b50965050505050505060405180910390a1505050565b828054600181600116156101000203166002900490600052602060002090601f016020900481019282601f106116e757805160ff1916838001178555611715565b82800160010185558215611715579182015b828111156117145782518255916020019190600101906116f9565b5b5090506117229190611775565b5090565b60c06040519081016040528060008152602001606081526020016060815260200160008152602001600073ffffffffffffffffffffffffffffffffffffffff1681526020016000151581525090565b61179791905b8082111561179357600081600090555060010161177b565b5090565b9056fea165627a7a723058205ec752af373ea75f449227011f122a6ba08307ffcebd247f24816020f68a02900029",
  "source": "pragma solidity ^0.5.0;\n\ncontract LandContract {\n\n  string public name;\n  address public owner;\n  uint public landCount = 0;\n\n  mapping(uint => Land) public lands;\n\n  struct Land {\n    uint landID;\n    string location;\n    string image;\n    uint value;\n    address payable owner;\n    bool forSale;\n  }\n\n  constructor() public {\n    name = \"Ethereum Homes\";\n    owner = msg.sender;\n  }\n  \n  event Add(\n    uint landID, \n    string location, \n    uint value, \n    address payable owner, \n    bool forSale\n  );\n\n  event Transfer(\n    uint landID, \n    string location, \n    uint value, \n    address payable owner, \n    bool forSale\n  );\n\n  event List(\n    uint landID, \n    string location, \n    uint value, \n    address payable owner, \n    bool forSale\n  );\n    \n  modifier isOwner {\n    require(msg.sender == owner);\n    _;\n  } \n\n  function addLand(string memory _location, string memory _image, uint _value) public isOwner {\n    // Require a valid location\n    require(bytes(_location).length > 0, 'Must be a valid location');\n    // Requie a valid value\n    require(_value > 0, 'Must be a value');\n    // Increment land count\n    landCount++;\n    // Add land\n    lands[landCount] = Land(landCount, _location, _image, _value, msg.sender, true);\n    // Trigger an event\n    emit Add(landCount, _location, _value, msg.sender, true);\n  }\n\n  function buyLand(uint _id) public payable {\n    // Fetch the land\n    Land memory _land = lands[_id];\n    // Fetch the owner\n    address payable _landHolder = _land.owner;\n    // Make sure the Land is valid\n    require(_land.landID > 0 && _land.landID <= landCount, 'land does not exist');\n    // Require that there is enough Ether in the transaction\n    require(msg.value >= _land.value, 'Not enough funds');\n    // Require land is for sale\n    require(_land.forSale == true, 'land is not for sale');\n    // Require buyer is not landHolder\n    require(_landHolder != msg.sender, 'buyer cannot be land owner');\n    // Transfer ownership to buyer\n    _land.owner = msg.sender;\n    // Mark as purchased\n    _land.forSale = false;\n    // Update land\n    lands[_id] = _land;\n    // Pay landHolder\n    address(_landHolder).transfer(msg.value);\n    // Trigger an event\n    emit Transfer(landCount, _land.location, _land.value, msg.sender, false);\n  }\n  \n  function listLand(uint _id, uint _value) public payable {\n    // Fetch the land\n    Land memory _land = lands[_id];\n    // Make sure the Land is valid\n    require(_land.landID > 0 && _land.landID <= landCount, 'land does not exist');\n    // Require that there is enough Ether in the transaction\n    require(_land.owner == msg.sender, 'you are not the land owner');\n    // Require land is not listed\n    require(_land.forSale == false, 'land is already listed');\n    // Mark as listed\n    _land.forSale = true;\n    // Update price\n    _land.value = _value;\n    // Update land\n    lands[_id] = _land;\n    // Trigger an event\n    emit List(_id, _land.location, _value, msg.sender, true);\n  }\n}\n    ",
  "sourcePath": "/Users/chadracelis/Coding/Solidity/Real Estate Dapp (React + IPFS)/src/contracts/LandContract.sol",
  "compiler": {
    "name": "solc",
    "version": "0.5.0+commit.1d4f565a.Emscripten.clang"
  },
  "schemaVersion": "3.0.2",
  "updatedAt": "2019-09-17T01:00:31.707Z",
  "devdoc": {
    "methods": {}
  },
  "userdoc": {
    "methods": {}
  }
}